:1000000066EF00F05541525420525332333220559E
:100010004152545F5238410A0D005541525420520A
:100020005332333220554152545F5238420A0D0048
:1000300046756E63696F6E6120656C2073657269C9
:10004000616C0A0D00000900F5520DE0F6CF05F0D5
:10005000F7CF06F0F5509EA8FED7AD6E05C0F6FFAF
:1000600006C0F7FFF0D780EF00F094908B90080E59
:10007000016E00D00000018E0ED0019E0732D8B074
:100080008B80D8A08B90018C06D0019C012EF6D7D6
:1000900000D000008B803F0EE96EE92EFED70000F5
:1000A00001BEEBD701BCF1D760EF00F00900F552BB
:1000B0000CE0F6CF05F0F7CF06F0F5CF07F0D5D777
:1000C00005C0F6FF06C0F7FFF1D71200F86AD09E10
:1000D000700ED36ED350B8960C0EAF6EA20EAC6EEF
:1000E000900EAB6E94908B80046AC150C00B0F09C8
:1000F000C16E070EB46E040EF66E000EF76EA3D737
:100100001A0EF66E000EF76ED1DF300EF66E000E90
:0E011000F76ECCDF9EAAFED7AE50EDD70300EF
:020000040030CA
:0E0000003FC83E1E0087A1000FC00FE00F405A
:00000001FF
;PIC18F4550
;CRC=915F  CREATED="26-feb.-19 12:00"
